:1000000098C00000B1C00000AFC00000ADC000004B
:10001000ABC00000A9C00000A7C00000A5C0000040
:10002000A3C00000A1C0000037C30000F9C3000056
:100030009BC0000099C0000097C0000095C0000060
:1000400093C0000091C000008FC000008DC0000070
:100050008BC0000089C0000087C0000085C0000080
:1000600083C0000087C100007FC000007DC0000089
:100070007BC0000079C0000077C0000075C00000A0
:1000800073C0000071C000006FC000006DC00000B0
:100090006BC0000069C0000067C0000065C00000C0
:1000A00063C0000061C000005FC000001C03550079
:1000B0005300420032004100580020005300650008
:1000C0007200690061006C000000120358006500B6
:1000D000760065006C00610062007300000004039C
:1000E000090409023E00020100C0320904000001B7
:1000F0000202010005240010010424020605240662
:100100000001070582030800FF09040100020A003C
:10011000000007050402100001070583021000011A
:100120001201100102000008D016A706000001020B
:10013000DC0111241FBECFEFDAE0DEBFCDBF11E03E
:10014000A0E0B1E0E0E8FFE002C005900D92AE3122
:10015000B107D9F722E0AEE1B1E001C01D92A334AE
:10016000B207E1F799D00AC74BCF9BB19F79982B83
:100170009BB90895FC01A081B1816C93808191812C
:10018000019691838083268137818217930721F41A
:1001900084819581918380832FB7F894828593859C
:1001A0000196938782872FBF0895FC01A281B381B6
:1001B0008D91B383A28326813781A217B30721F4DF
:1001C00024813581338322839FB7F8942285338538
:1001D00021503109338722879FBF0895682F8BEA0A
:1001E00091E0C8DFA89A0895CF93FC0121812F7078
:1001F0002093E9002091E80020FF2EC03FB7F8943B
:100200002091B5013FBF2223E1F0C2812C1710F4E9
:10021000A89B22C0A89A2C1740F4C22F06C08BEAD4
:1002200091E0C3DF8093F100C150C111F8CF8091FC
:10023000E80085FB882780F991E0892780931E01DB
:1002400006C080911E01882339F010921E01809112
:10025000E8008E778093E800CF91089584B7877F78
:1002600084BF88E10FB6F89480936000109260001C
:100270000FBE90E080E80FB6F894809361009093F1
:1002800061000FBE8AB180668AB98BB18F798BB954
:10029000EBD184E085BD0895E1DFEFE1F1E04FB7F8
:1002A000F8948BE291E0918380839383828395839A
:1002B00084838BEA91E09783868320E830E031875E
:1002C0002087138612864FBFEBEAF1E04FB7F89410
:1002D00087EB91E0918380839383828395838483EA
:1002E00087E392E09783868331872087138612867F
:1002F0004FBF80E03ADF78948FB7F89420912901BE
:1003000030912A018FBF80912701909128012817F1
:10031000390749F080E091E028D597FD04C0682FA7
:100320008FE191E027DF2FB7F89480912901909118
:100330002A012FBF892B49F08FE191E036DF9091A0
:10034000C80095FFFCCF8093CE0080E091E04CDFA9
:10035000CCD4D2CF80E409CF80E007CF80E091E019
:10036000DFD4882311F080E201C080E6FECE80E079
:1003700091E032C51F920F920FB60F9211242F9366
:100380003F934F935F936F937F938F939F93AF931D
:10039000BF93EF93FF938091CE009EB3943009F406
:1003A0001DDFFF91EF91BF91AF919F918F917F9151
:1003B0006F915F914F913F912F910F900FBE0F90D2
:1003C0001F901895CF93FC01A18DA150A23028F465
:1003D000B0E0A55EBE4FCC9101C0C0E0808D823000
:1003E00009F4C860828D873031F0883031F0863072
:1003F00029F4C26003C0C46001C0C6601092C90085
:100400001092C8001092CA002489358946895789FC
:10041000CA01B901969587957795679560587B478E
:10042000814E9F4F89D5215031093093CD002093C3
:10043000CC00C093CA0082E08093C80088E9809312
:10044000C900CF910895292F33272230310539F083
:100450002330310549F02130310521F128C0EEE388
:10046000F0E082EE90E027C099278130910561F09D
:100470008230910581F0892BD1F4EEEDF0E0E4912A
:10048000F0E08EED90E017C0EAECF0E0E491F0E0EF
:100490008AEC90E010C0ECEAF0E0E491F0E08CEA45
:1004A00090E009C0E2E1F0E080E291E004C0E0E029
:1004B000F0E080E090E0DA018D939C93CF01089505
:1004C000982F2CC09093E900981739F07091EC00A8
:1004D0002091ED005091F00003C0242F762F50E0C2
:1004E00021FD02C09F5F1AC03091EB003E7F309328
:1004F000EB003091ED003D7F3093ED003091EB004B
:1005000031603093EB007093EC002093ED0050933A
:10051000F0002091EE0027FDE5CF07C0973090F264
:100520008F708093E90081E0089580E008950F9333
:100530001F93CF93DF93062FEC0110E02FC098811B
:10054000911103C01F5F259629C02C81E981FA8192
:100550007B81892F8F70873010F080E022C022309D
:1005600010F056E001C052E028E030E040E003C067
:100570004F5F220F331F2E173F07D0F34295407F66
:10058000452B692F661F6627661F90E4799F9001AF
:100590001124622B95DF8111D5CFDFCF1013CFCF80
:1005A00081E0DF91CF911F910F91089580913B02DF
:1005B00087FD05C08091E80080FF0DC010C08091CC
:1005C000E80082FD04C08EB38111F9CF08958091B7
:1005D000E8008B7707C08EB38111ECCF089580912E
:1005E000E8008E778093E80008950F931F93CF93D0
:1005F000DF9345D04CD0C8EDD0E088818F778883D9
:1006000088818068888388818F7D888319BC1EBA21
:1006100010923702109239021092380200EE10E068
:10062000F80180818B7F808388818160888342E0AC
:1006300060E080E045DFE1EEF0E080818E7F808346
:10064000E2EEF0E080818160808380818860808339
:10065000F80180818E7F8083888180618883DF912B
:10066000CF911F910F910895E7EDF0E080818160B7
:10067000808384E082BF81E080933A02B6CFE8EDC8
:10068000F0E080818E7F80831092E20008951092C6
:10069000DA001092E10008951F920F920FB60F92A8
:1006A00011242F933F934F935F936F937F938F9377
:1006B0009F93AF93BF93EF93FF938091E10082FFED
:1006C0000AC08091E20082FF06C08091E1008B7F2A
:1006D0008093E10009D38091DA0080FF1BC08091F4
:1006E000D80080FF17C08091DA008E7F8093DA00F7
:1006F0008091D90080FF0BC080E189BD82E189BD76
:1007000009B400FEFDCF81E08EBB24DE03C019BC1E
:100710001EBA22DE8091E10080FF17C08091E200C6
:1007200080FF13C08091E2008E7F8093E200809171
:10073000E20080618093E2008091D8008062809323
:10074000D80019BC85E08EBBCFD28091E10084FF38
:100750002CC08091E20084FF28C080E189BD82E145
:1007600089BD09B400FEFDCF8091D8008F7D8093B4
:10077000D8008091E1008F7E8093E1008091E200BB
:100780008F7E8093E2008091E20081608093E2009E
:1007900080913702811104C08091E30087FF02C07D
:1007A00084E001C081E08EBB9FD28091E10083FF95
:1007B00026C08091E20083FF22C08091E100877F04
:1007C0008093E10082E08EBB109237028091E100BD
:1007D0008E7F8093E1008091E2008E7F8093E20023
:1007E0008091E20080618093E20042E060E080E07E
:1007F00067DE8091F00088608093F00075D2FF91F1
:10080000EF91BF91AF919F918F917F916F915F9188
:100810004F913F912F910F900FBE0F901F90189501
:100820001F920F920FB60F9211242F933F934F9365
:100830005F936F937F938F939F93AF93BF93CF9368
:10084000EF93FF938091E9008F709091EC0090FFFF
:1008500002C090E801C090E0C92FC82B1092E900B7
:100860008091F000877F8093F0007894D7D0109229
:10087000E9008091F00088608093F000CF70C09311
:10088000E900FF91EF91CF91BF91AF919F918F912F
:100890007F916F915F914F913F912F910F900FBE7C
:1008A0000F901F90189540914102509142024617B7
:1008B000570748F06115710539F44091E8004E770B
:1008C0004093E80001C0BA01FC0140E032C08EB3A1
:1008D000882309F441C0853009F440C08091E800C4
:1008E00083FD38C08091E80082FD2EC08091E80031
:1008F00080FF1FC09091F3008091F200392F20E01B
:10090000A901482BCA0106C041914093F1006150F2
:10091000710901966115710519F088309105A0F3F0
:1009200041E0089709F040E08091E8008E778093DD
:10093000E8006115710559F64111C9CF05C08EB3A4
:10094000882351F0853051F08091E80082FFF7CF85
:1009500080E0089581E0089582E0089583E008959D
:1009600040914102509142024617570748F06115E5
:10097000710539F44091E8004E774093E80001C0DA
:10098000BA01FC0140E033C08EB3882309F442C0B1
:10099000853009F441C08091E80083FD39C0809121
:1009A000E80082FD2FC08091E80080FF20C0909178
:1009B000F3008091F200392F20E0A901482BCA01F1
:1009C00007C044914093F10031966150710901963E
:1009D0006115710519F08830910598F341E0089789
:1009E00009F040E08091E8008E778093E80061157F
:1009F000710551F64111C8CF05C08EB3882351F05F
:100A0000853051F08091E80082FFF7CF80E00895B3
:100A100081E0089582E0089583E00895EF92FF92C7
:100A20000F931F93CF93DF93CDB7DEB7AC970FB67D
:100A3000F894DEBF0FBECDBFEBE3F2E08091F10092
:100A4000819322E0E334F207C9F791DC8091E8005A
:100A500083FF2FC180913B0290913C02953009F4B5
:100A600087C038F49130B1F170F0933009F021C1B2
:100A700031C0983009F4F3C0993009F4FFC09630C2
:100A800009F017C19BC0803821F0823809F011C1EC
:100A900008C08091380290913902992389F08260D0
:100AA0000FC080913F02909140028F7099278093F0
:100AB000E9008091EB0085FB882780F91092E9001E
:100AC0009091E800977F9093E8008093F100109256
:100AD000F100D0C0882319F0823009F0EAC08F718C
:100AE00021F0823009F0E5C00BC080913D028130D9
:100AF00009F0DFC0933009F080E0809339022FC005
:100B000080913D0281112BC080913F029091400263
:100B10008F709927009709F4CCC08093E900209149
:100B2000EB0020FF1CC020913C02233021F4809177
:100B3000EB00806212C09091EB0090619093EB000B
:100B400021E030E001C0220F8A95EAF72093EA0005
:100B50001092EA008091EB0088608093EB00109285
:100B6000E9008091E800877F8093E8001FDDA1C045
:100B700081119FC000913D0210913E020F77112715
:100B8000E02EFFB6F8948091E800877F8093E8001C
:100B90000DDD8091E80080FFFCCF8091E30080783C
:100BA000802B8093E30080688093E300EE2011F0B7
:100BB00083E001C082E08EBBFFBE7BC080588230E4
:100BC00008F077C080913D0290913E028C3D23E079
:100BD000920771F583E08A838AE289834FB7F8949C
:100BE000DE01139620E03EE051E2E32FF0E0509367
:100BF0005700E49120FF03C0E295EF703F5FEF7074
:100C00008E2F90E0EA3010F0C79601C0C0968D9309
:100C10009D932F5F243149F74FBF8091E800877F74
:100C20008093E8006AE270E0CE0101963CDE11C0DC
:100C3000AE01455D5F4F60913F0205DC0097C9F151
:100C40002091E800277F2093E800BC018BA59CA59C
:100C500087DE8091E8008B778093E8002AC0803897
:100C600041F58091E800877F8093E800809137020A
:100C70008093F1008091E8008E7776CF811119C0C2
:100C800090913D029230A8F48091E800877F809394
:100C9000E800909337028ADC80913702811104C00A
:100CA0008091E30087FF02C084E001C081E08EBB39
:100CB00055DB8091E80083FF0AC08091EB008062E1
:100CC0008093EB008091E800877F8093E800AC96EA
:100CD0000FB6F894DEBF0FBECDBFDF91CF911F914D
:100CE0000F91FF90EF9008950895CF938EB38823CE
:100CF000A9F08091E9008F709091EC0090FF02C004
:100D000090E801C090E0C92FC82B1092E9008091B3
:100D1000E80083FD83DECF70C093E900CF91089592
:100D2000CF93DF93EC014096FC018BE0DF011D9235
:100D30008A95E9F782E08C83898783E08E8761E07A
:100D4000CE010196F4DB882361F061E0CE010696C6
:100D5000EEDB882331F061E0CE010B96DF91CF917D
:100D6000E6CB80E0DF91CF9108952EB3243019F0C7
:100D70002FEF3FEF2EC0FC014489558966897789A2
:100D8000452B462B472BA1F386818F708093E9007A
:100D90008091E80082FFECCF3091F3002091F200C7
:100DA000932F80E0822B892B21F02091F10030E0FD
:100DB00002C02FEF3FEF5091F3004091F200952FCA
:100DC00080E0842B892B29F48091E8008B77809335
:100DD000E800C90108950895CF93DF93EC01809155
:100DE000E80083FFA6C0888190E020913F02309107
:100DF00040022817390709F09CC080913C028132DB
:100E000061F020F4803209F094C03DC0823209F4D0
:100E10006CC0833209F08DC07CC080913B02813A66
:100E200009F087C08091E800877F8093E800809177
:100E3000E80080FFFCCF4C895D896E897F894093F3
:100E4000F100BB27A72F962F852F8093F100CB01B0
:100E5000AA27BB278093F100472F552766277727BE
:100E60004093F100888D8093F100898D8093F1008B
:100E70008A8D8093F1008091E8008E778093E8005E
:100E8000DF91CF9193CB80913B02813209F051C029
:100E90008091E800877F8093E80004C08EB38823A8
:100EA00009F447C08091E80082FFF8CF3091F1004B
:100EB0002091F1009091F1008091F1003C8B2D8BFD
:100EC0009E8B8F8B8091F100888F8091F100898FAC
:100ED0008091F1008A8F8091E8008B778093E80001
:100EE00065DBCE01DF91CF916DCA80913B028132EB
:100EF00001F58091E800877F8093E80057DB8091BF
:100F00003D0290913E02998B888BCE01DF91CF916B
:100F100062CF80913B02813261F48091E800877F4B
:100F20008093E80043DB60913D02CE01DF91CF91D9
:100F300052CFDF91CF910895A1E21A2EAA1BBB1BBD
:100F4000FD010DC0AA1FBB1FEE1FFF1FA217B30795
:100F5000E407F50720F0A21BB30BE40BF50B661FAB
:100F6000771F881F991F1A9469F76095709580956F
:100F700090959B01AC01BD01CF010895F894FFCF7E
:100F8000008310000001041000000182080000012D
:0E0F9000000000000000000000000030200003
:00000001FF
